:020000040800F2
:100000000080012015450008710B0008730B0008E3
:10001000750B0008770B0008790B00080000000042
:100020000000000000000000000000007B0B000842
:100030007D0B0008000000007F0B0008810B00080A
:1000400065450008654500086545000865450008E8
:1000500065450008654500086545000865450008D8
:1000600065450008654500086545000865450008C8
:1000700065450008654500086545000865450008B8
:1000800065450008654500086545000865450008A8
:100090006545000865450008654500086545000898
:1000A0006545000865450008654500086545000888
:1000B0006545000865450008654500086545000878
:1000C0006545000865450008654500086545000868
:1000D0006545000865450008654500086545000858
:1000E0006545000865450008654500086545000848
:1000F0006545000865450008654500086545000838
:100100006545000865450008654500086545000827
:100110006545000865450008654500086545000817
:100120006545000865450008654500086545000807
:1001300065450008654500086545000865450008F7
:10014000654500086545000865450008890B0008FD
:1001500065450008654500086545000865450008D7
:1001600065450008654500086545000865450008C7
:100170006545000865450008654500080000000069
:08018000654500086545000813
:100188000348044B834202D0034B03B1184770471E
:10019800080000200800002000000000054806496B
:1001A800091A891001EBD171491002D0034B03B130
:1001B80018477047080000200800002000000000D1
:1001C80010B5064C237843B9FFF7DAFF044B13B197
:1001D8000448AFF300800123237010BD08000020FD
:1001E800000000006845000808B5044B1BB104492D
:1001F8000448AFF30080BDE80840CFE700000000E6
:100208000C0000206845000870B50D4E0D4D761B9A
:10021800B61006D00024013455F8043B9847A6428E
:10022800F9D1094E094D761B04F09AF9B61006D09B
:100238000024013455F8043B9847A642F9D170BD13
:10024800D0450008D0450008D4450008D04500082E
:10025800F0B4860743D0541E002A3ED0CAB20346E3
:1002680002E014F1FF3438D303F8012B9D07F8D1CD
:10027800032C2BD9CDB245EA05250F2C45EA0545B7
:1002880016D9A4F110073F0903F1200606EB07165B
:1002980003F1100242E9045542E902551032B24214
:1002A800F8D104F00F040137032C03EB07130DD921
:1002B8001E462246043A032A46F8045BFAD8221F4F
:1002C80022F003020432134404F003042CB1C9B22F
:1002D8001C4403F8011B9C42FBD1F0BC7047144638
:1002E8000346C5E753B94AB9002908BF00281CBF0F
:1002F8004FF0FF314FF0FF3000F072B9ADF1080C4C
:100308006DE904CE00F006F8DDF804E0DDE902232B
:1003180004B070472DE9F047089E04468846002B34
:100328004BD18A42154667D9B2FA82F24AB1C2F174
:10033800200701FA02F320FA07F7954047EA030875
:1003480094404FEA154E230CB8FBFEF71FFA85FCC4
:100358000EFB178843EA084307FB0CF1994209D9B9
:10036800EB1807F1FF3080F01B81994240F21881A9
:10037800023F2B445B1AA4B2B3FBFEF00EFB103312
:1003880044EA034400FB0CFCA44509D92C1900F1EC
:10039800FF3380F00781A44540F2048102382C44E1
:1003A80040EA0740A4EB0C0400271EB1D440002308
:1003B800C6E900433946BDE8F0878B4209D9002ECB
:1003C80000F0EB800027C6E9000138463946BDE851
:1003D800F087B3FA83F7002F47D18B4202D38242CA
:1003E80000F2FA80841A61EB030301209846002E7C
:1003F800E0D0C6E90048DDE702B9FFDEB2FA82F2D2
:10040800002A40F08F80491B4FEA154E1FFA85F8E5
:100418000127B1FBFEFC230C0EFB1C1143EA014330
:1004280008FB0CF1994207D9EB180CF1FF3002D206
:10043800994200F2CD808446591AA3B2B1FBFEF06E
:100448000EFB101443EA044408FB00F8A04507D942
:100458002C1900F1FF3302D2A04500F2B6801846ED
:10046800A4EB080440EA0C409FE7C7F1200CBB400E
:1004780022FA0CFE4EEA030E01FA07F420FA0CF5F4
:1004880021FA0CF34FEA1E482543B3FBF8F92C0C6C
:1004980008FB19331FFA8EFA44EA034309FB0AF4EE
:1004A8009C4202FA07F200FA07F10BD91EEB03038C
:1004B80009F1FF3080F087809C4240F28480A9F1E6
:1004C800020973441B1BADB2B3FBF8F008FB1033F1
:1004D80045EA034400FB0AFAA24508D91EEB0404C6
:1004E80000F1FF336BD2A24569D90238744440EA5F
:1004F8000940A0FB0289A4EB0A044C45C2464B46BE
:1005080054D351D0002E69D0B1EB0A0564EB030433
:1005180004FA0CFCFD40FC404CEA0505C6E9005411
:10052800002747E7C2F1200320FA03F7954001FAB4
:1005380002F021FA03F34FEA154E3843010CB3FBDE
:10054800FEF71FFA85F80EFB173341EA034107FB54
:1005580008F38B4204FA02F407D9691807F1FF3C43
:100568002FD28B422DD9023F2944CB1A81B2B3FB3B
:10057800FEF00EFB103341EA034100FB08F38B4207
:1005880007D9691800F1FF3C17D28B4215D90238F8
:100598002944C91A40EA07473BE73746304609E786
:1005A8000746E7E61846FBE64145ABD2B8EB020A38
:1005B80069EB0E0201381346A4E76046E9E71846DE
:1005C80095E76746D1E781467CE702382C4447E740
:1005D800ACF1020C2B442FE7384608E73746E9E62A
:1005E800704700BF2DE9F04F8DB0002407940894A0
:1005F80009940A940B94704BDA6C42F01002DA6496
:10060800DA6C02F010020192019ADA6C42F00402EC
:10061800DA64DA6C02F004020292029ADA6C42F0AE
:100628008002DA64DA6C02F080020392039ADA6CD0
:1006380042F00102DA64DA6C02F001020492049AD0
:10064800DA6C42F00202DA64DA6C02F00202059215
:10065800059ADA6C42F00802DA64DB6C03F00803EE
:100668000693069B224640F20911544803F05CFEAB
:1006780022460C21524803F057FE524F01224FF4F4
:100688000071384603F050FE22464FF400613846A8
:1006980003F04AFE224680214B4803F045FE4FF006
:1006A800080BCDF81CB00125089509944FF00208F5
:1006B800CDF8288007A9414803F04CFD4FF41053AA
:1006C8000793424E0896099407A9384603F042FD5D
:1006D800072307930894099407A9384603F03AFDBD
:1006E8002F2307930894CDF8248007A94FF0904052
:1006F80003F030FD102307930896099407A94FF0DB
:10070800904003F027FD04230793089509954FF0BF
:100718000309CDF8289007A9294803F01BFD4FF4D9
:10072800807ACDF81CA008950995CDF8289007A9DE
:10073800224803F00FFD4FF42063079308950994AE
:100748000A9407A9384603F005FD05230793089680
:10075800099407A91C4803F0FDFC8023079308951A
:100768000994CDF8289007A9174803F0F3FCCDF8B1
:100778001CB0089509940A9407A9114803F0EAFCEB
:10078800CDF81CA00896099407A90D4803F0E2FCCF
:100798000795089509940A9407A9084803F0DAFC14
:1007A800CDF81C800896099407A9044803F0D2FCE8
:1007B8000DB0BDE8F08F00BF0010024000100048E7
:1007C8000004004800080048000C0048000012100F
:1007D80038B50E4C0E4B2360A3F17F53A3F28C73F4
:1007E80063600025A5600123E36025616561A5615B
:1007F800E5612562204600F00DFC2946204600F000
:1008080067FC2946204600F091FC38BD8C0000208A
:100818000054004038B50E4C0E4B2360A3F17F53B3
:10082800A3F68C3363600025A5600123E36025618E
:100838006561A561E5612562204600F0EBFB29466C
:10084800204600F045FC2946204600F06FFC38BDE4
:10085800DC0000200058004008B50A480A4B036035
:100868000023436083600C22C2600361436183619B
:10087800C361036203638362C362436200F098FC4E
:1008880008BD00BFAC0100200024004008B507489F
:10089800074B0360FF234360012282600023C3608B
:1008A80002614361836100F02BFD08BDA8050020AB
:1008B800001000A010B51948194B03600024046308
:1008C8004460402343638463C46384600461446177
:1008D8008461144BC361C46044628462C4620823A7
:1008E8000364012343648464C464046544658465C3
:1008F800C365046600F086FD0B480C4B03600423B7
:10090800036344608460046184614BF68033C3618F
:10091800C4604462846200F075FD10BDAC04002020
:100928000454014000EE0200280100202454014034
:1009380008B50E480E4B03604FF4827343600023E2
:1009480083604FF44072C260036143614FF40072E8
:100958008261C3610362436283620722C2620363E6
:100968000823436300F038FE08BD00BF28000020BC
:100978000038004008B50948094B03604FF4E133DB
:10098800436000238360C36003610C22426183617A
:10099800C3610362436201F057F908BD30050020C6
:1009A8000044004008B508484FF0A04303600823FE
:1009B80083600323C3600023036102228261C36151
:1009C80001F0B4F908BD00BFE8010020F0B5B9B0E6
:1009D8004422002127A8FFF73BFC002422942394FB
:1009E800249425942694882221466846FFF730FCF3
:1009F80003F0A0FC244AD2F8903023F01803C2F880
:100A080090301C232793012529952C952D952E94FC
:100A180060232F930226319632953395142334930D
:100A2800072735973696379627A802F061F80F23DF
:100A380022930323239380232493259426942946E1
:100A480022A802F0FDFA114B00930F941494159408
:100A580019944FF4007421944FF080631B9301950F
:100A68000295182303930497059606964FF4881366
:100A78000793684602F09AFD204603F06BFC03F0EA
:100A880061FB39B0F0BD00BF00100240C22802006F
:100A980000B583B02F4B48F6B8021A6001F040FF4A
:100AA800FFF794FFFFF79EFDFFF792FEFFF7B2FEF8
:100AB800FFF7D2FEFFF7EAFEFFF7FCFEFFF738FF6D
:100AC800FFF758FFFFF76EFF234AD36C6FEA5323F3
:100AD8006FEA4323D364214B1A6822F030021A606C
:100AE8001A6842F010021A605A6822F004025A602A
:100AF80003F540631A6822F440321A601A6842F417
:100B080080321A605A6822F480725A6010E000221B
:100B18000092124B59695A61114A536983F48073E0
:100B2800536113E0019B013B0193019B002BF9D119
:100B3800009B002BEBD101230093084A536983F0F3
:100B480004035361064B5A6900225A61054B01930D
:100B5800EBE700BFD8000020001002400004004866
:100B680000100048305705007047FEE7FEE7FEE733
:100B7800FEE770477047704708B501F0E7FE08BD0B
:100B880008B5024801F03BFC08BD00BFE8010020A1
:100B980082B00A4B1A6E42F001021A661A6E02F00F
:100BA80001020092009A9A6D42F080529A659B6DFC
:100BB80003F080530193019B02B07047001002407C
:100BC80010B58AB0002305930693079308930993F9
:100BD8000368264A934204D0254A934223D00AB098
:100BE80010BD244CE36C43F00203E364E36C03F0B0
:100BF80002030193019BC02305931223069301234B
:100C08000793032308930423099305A91A4803F0BB
:100C1800A1FAA36D43F40013A365A36D03F40013B5
:100C28000293029BDBE7134CE36C43F00203E3649B
:100C3800E36C03F002030393039B4FF440630593B3
:100C4800122306930123079303230893042309938C
:100C580005A9094803F07EFAA36D43F48003A36550
:100C6800A36D03F480030493049BB8E70054004089
:100C780000580040001002400004004870B58AB0D7
:100C88000023059306930793089309930268314B51
:100C98009A4201D00AB070BD03F5F6339A6D42F45A
:100CA80000729A659A6D02F400720092009ADA6CEA
:100CB80042F00402DA64DA6C02F004020192019A4A
:100CC800DA6C42F00102DA64DA6C02F00102029294
:100CD800029ADA6C42F00202DA64DA6C02F002027A
:100CE8000392039ADA6C42F00802DA64DB6C03F0D0
:100CF80008030493049B4FF4FC730593022606969D
:100D08000B25099505A9144803F024FA48F2C07385
:100D180005930696002407940894099505A94FF0B1
:100D2800904003F017FA4FF2332305930696079481
:100D38000894099505A9094803F00CFA4FF47F4374
:100D48000593069607940894099505A9044803F0A5
:100D580001FA9FE70024004000080048000400480A
:100D6800000C004800B589B0002303930493059351
:100D7800069307930268154B9A4202D009B05DF8B2
:100D880004FB03F1204303F500331A6D42F480722B
:100D98001A651A6D02F480720192019ADA6C42F0B7
:100DA8001002DA64DB6C03F010030293029B4FF429
:100DB8007C43039302230493032306930A23079394
:100DC80003A9034803F0C6F9D8E700BF001000A044
:100DD8000010004800B589B00023039304930593DD
:100DE800069307930268134B9A4202D009B05DF844
:100DF80004FB03F5EC339A6D42F480429A659A6DD0
:100E080002F480420192019ADA6C42F00802DA6434
:100E1800DB6C03F008030293029B1A23039302235B
:100E28000493032306930523079303A9024803F0B9
:100E380091F9DBE700380040000C004800B589B0A4
:100E48000023039304930593069307930268144BB6
:100E58009A4202D009B05DF804FB03F5E6339A6DB7
:100E680042F400329A659A6D02F400320192019AB6
:100E7800DA6C42F00802DA64DB6C03F008030293D0
:100E8800029B602303930223049301230593032306
:100E980006930723079303A9024803F05BF9D9E7F0
:100EA80000440040000C004810B588B000230393AC
:100EB80004930593069307930368B3F1A04F01D0F9
:100EC80008B010BD1F4CE36C43F00103E364E36C0E
:100ED80003F001030093009B4FF4C05303930223D4
:100EE8000493032306930A23079303A94FF0904022
:100EF80003F030F9E36C43F48053E364E36C03F4E8
:100F080080530193019BA36D13F0805F17D1A36DEC
:100F180043F08053A365A36D03F080530293029BB3
:100F280003F060FAA36D23F08053A36500221146F5
:100F3800432003F071FA432003F0A2FAC0E703F05C
:100F480051FAF3E7001002402DE9F04188B0044659
:100F580002682B4B9A4206D022682A4B9A4230D01C
:100F680008B0BDE8F081284B1B684BB9274A116EC1
:100F780041F400111166126E02F400120192019AF6
:100F88000133214A1360742303934FF00208CDF80C
:100F9800108000250595032306930D2707971C4EFF
:100FA80003A9304603F0D6F84FF400730393CDF845
:100FB800108005950695079703A9304603F0CAF8EF
:100FC800CAE7114B1B684BB9104A116E41F4001166
:100FD8001166126E02F400120292029A01330A4A52
:100FE80013608023039302230493002305930323B0
:100FF80006930D23079303A9054803F0ABF8AFE761
:1010080004540140245401402400002000100240F0
:1010180000100048002859D010B5044690F8413017
:10102800002B43D0242384F841302268136823F02E
:10103800010313606368226823F0706313612268F8
:10104800936823F400439360E368012B33D0A368CB
:10105800226843F404439360E368022B31D022688A
:10106800536843F0007343F4004353602268D36825
:1010780023F40043D360236962691343A16922689A
:1010880043EA0123D360E369216A22680B431360B2
:101098002268136843F00103136000206064202372
:1010A80084F84130206384F8420010BD80F8403055
:1010B800FFF786FDB6E7A368226843F40043936010
:1010C800CAE723684FF400625A60C8E701207047F6
:1010D80090F84130DBB2202B24D190F84030012B1E
:1010E80022D0012380F84030242380F84130026860
:1010F800136823F0010313600268136823F4805314
:10110800136002681368194311600268136843F09A
:1011180001031360202380F84130002380F8403019
:1011280018467047022070470220704790F84130F7
:10113800DBB2202B22D190F84030012B20D00123A4
:1011480080F84030242380F841300268136823F087
:10115800010313600268136823F4706343EA0121F2
:1011680011600268136843F001031360202380F8BC
:101178004130002380F840301846704702207047FD
:101188000220704738B5044601F0E8FB054623689D
:101198009B6813F0200F09D101F0E0FB401BB0F56C
:1011A8007A7FF4D90123A363032000E0002038BD2F
:1011B80000287BD038B5044690F835304BB102236F
:1011C80084F835302268136823F001031360002384
:1011D8000BE080F83430FFF751FDF0E72268191D65
:1011E80002EB81020021516001330F2BF6D92268EE
:1011F800936843F00403936021684A6822F07F7281
:1012080022F47F3222F47C7222F001026368A06823
:101218000343A06A0343E06A0343E0690343206A87
:101228000343A0690343606A034313434B602046AA
:10123800FFF7A8FF21680A6822F0FE02E368206928
:10124800034360690343206B034313430B60226825
:10125800136843F00103136001F080FB054623681F
:101268009B6813F0010F09D101F078FB401BB0F522
:101278007A7FF4D90823A363032038BD01F06EFBFD
:10128800054623689B6813F0100F09D101F066FB2F
:10129800401BB0F57A7FF4D91023A3630320ECE751
:1012A8000020A063012384F83530E6E70120704769
:1012B8002DE9F04105460F4616469846069C2B68D0
:1012C8009B683B4214BF01230023B34213D0B4F1FF
:1012D800FF3FF4D001F042FBA0EB0800A04201D888
:1012E800002CECD1042385F83930EB6B43F0010373
:1012F800EB63012000E00020BDE8F0810164704745
:1013080030B583B0044601F029FB002C52D00546C5
:1013180094F83830DBB2012B4ED0012384F83830F2
:1013280094F83930002B3AD021680B6823F47063A5
:10133800A268013A43EA02230B60236C00932B4610
:10134800002220212046FFF7B3FF024608BB206891
:10135800036823F07F4323F010036568E16841EADE
:1013680005610B43036020684168144B0B402569F5
:10137800616941EA0541A56929430B434360216836
:101388000B6843F001030B600023E363012384F837
:101398003930002384F83830104603B030BD84F863
:1013A80038302046FFF7DEFC41F288312046FFF74F
:1013B800A5FFB9E70122EFE70222EDE7FEF8E0FF1B
:1013C8000E4B1B680E4AA2FB03231B0B9B000168F4
:1013D8000A6822F480320A603BB1013B0268126855
:1013E80012F4803FF8D100207047D0F8803043F0E5
:1013F8004003C0F880300320704700BF0000002081
:101408001BECCB95F8B5002800F0D680044690F880
:101418007D300BB32046FFF7D3FF0546002840F088
:10142800CD80022384F87D30E368012B1BD0022B8A
:1014380017D00022A368022B17D0032B18D0012B3A
:101448001BD0002623685E498B4219D020318B427D
:1014580016D05C4B1A6015E080F87C30FFF774FDFD
:10146800D8E72022E6E71022E4E74FF40066E9E730
:1014780042F001024FF40066E4E74FF48066E1E7CA
:10148800514B1A60E3691BB323684D4A934207D056
:101498002032934204D04FF4805002F0AFFA03E0B8
:1014A8004FF4006002F0AAFA00EB80004100E36903
:1014B8005B02B1FBF3F1454BA3FB0123DB0823627D
:1014C80003EB830042008A1A082A01D901332362F8
:1014D800636833B1022B04D0E36B012B69D000277A
:1014E80004E0E36B012B62D04FF4007721680B68AE
:1014F800374A1A400A6021680A686368206B034308
:10150800606B0343A06B03433B433343606A03436D
:101518002069034360690343206A43EA0053134385
:101528000B602268536823F4604323F00F03536071
:1015380021684A68A369A06A0343E06A0343134326
:101548004B6022689168234B0B4093602068826847
:10155800236C013B216D0B43A16C0B43E16C0B43E6
:10156800616C013943EA0123134383602268D3681D
:1015780023F47D6323F00F031B041B0CD360206846
:10158800C268636DA16D0B43216E43EA0143E16DAF
:10159800013943EA01231343C3600023C4F88030B0
:1015A800012284F87D2084F87C302846F8BD002785
:1015B8009CE74FF4007799E70125F6E70125F4E762
:1015C800045401400058014000540140CDCCCCCC1B
:1015D80010C005FF0080F8FF002853D010B504465E
:1015E8000023836290F85D30002B40D0022384F8FA
:1015F8005D302268136823F040031360E368B3F595
:10160800E06F39D90022B3F5706F04D0B3F5E06FFD
:1016180001D00021A162216B21B9B3F5E06F2ED969
:10162800022323636368A1680B4321690B43616943
:101638000B43A16901F400710B43E1690B43216A73
:101648000B43A06A216803430B60638B03F0040318
:10165800616A0B43616B0B43E1680B4321681343D9
:101668004B6000202066012384F85D3010BD80F8AF
:101678005C30FFF7AFFBB9E74FF48052C3E70123B3
:101688002363CFE7012070472DE9F048044601683D
:1016980083680269134342691343C26913430868A4
:1016A800A24A024013430B602268536823F4405354
:1016B800E1680B435360A16922689D4B9A4201D0AF
:1016C800236A1943936823F430630B4393602368B8
:1016D800984A934227D0984A934238D0974A9342DF
:1016E8004ED0974A934261D0964A934274D0904A1A
:1016F800934200F08A8010258D4A934200F0AA8018
:10170800E369B3F5004F00F03581082D00F2BF8181
:10171800DFE815F07F0195019F01BD01AA01BD0118
:10172800BD01BD01B40102F55842D2F8882002F08B
:101738000302032A09D8DFE802F002048106012522
:10174800DAE70425D8E70825D6E71025D4E702F517
:10175800E632D2F8882002F00C020C2A0ED8DFE814
:1017680002F0070D0D0D090D0D0D6F0D0D0D0B0080
:101778000025C1E70425BFE70825BDE71025BBE71D
:1017880002F5E432D2F8882002F03002102A09D09B
:1017980005D9202A56D0302A06D10825ACE71AB92F
:1017A8000025A9E70425A7E71025A5E702F5E232F9
:1017B800D2F8882002F0C002402A09D005D9802A30
:1017C80042D0C02A06D1082596E71AB9002593E722
:1017D800042591E710258FE702F5E032D2F888203A
:1017E80002F44072B2F5807F0BD007D9B2F5007FC2
:1017F8002CD0B2F5407F06D108257DE71AB900251F
:101808007AE7042578E7102576E702F5C832D2F89A
:10181800882002F44062B2F5806F0BD007D9B2F588
:10182800006F15D0B2F5406F06D1082564E71AB9E4
:10183800002561E704255FE710255DE702255BE7E2
:10184800022559E7022557E7022555E7022553E700
:10185800022551E7082D00F21D81DFE815F00C0084
:101868001B0114001B0111001B011B011B010900B6
:101878004FF4004008E001F093FC28B90020D9E0BB
:1018880001F0CAF8F9E73048626802EB4203834284
:1018980000F20281B0EB023F00F20081082D66D809
:1018A800DFE805F00565206530656565580001F0DD
:1018B80077FC0025070E0602626850082B4616EBD7
:1018C800000B47F1000C58466146FEF70BFD034636
:1018D8002846A3F540711D4A914200F2E180226832
:1018E800D360A7E0560800252B46DFF864B04FF018
:1018F800000C1BEB06004CF10001FEF7F3FC03465D
:101908002846E6E701F088F80025070E0602626817
:1019180050082B4616EB000B47F1000C5846614661
:10192800FEF7E0FC03462846D3E700BFF369FFEF64
:10193800008000400038014000440040004800405A
:10194800004C0040005000400024F400FFFC0F0051
:10195800000024F45008002700252B4610F500004D
:1019680047F10001FEF7BEFC03462846B1E7012017
:101978000023AEE7082D49D8DFE805F0051E294801
:10198800344848483F0001F00BFC6268530803EBF9
:101998004003B3FBF2F39BB20020A3F110014FF612
:1019A800EF7291427ED89AB222F00F02C3F342033B
:1019B80013432268D3603DE001F004FC62685308D9
:1019C80003EB4003B3FBF2F39BB20020E5E7626848
:1019D800530803F1F47303F59043B3FBF2F39BB29E
:1019E8000020DAE701F018F86268530803EB4003B7
:1019F800B3FBF2F39BB20020CFE76268530803F50C
:101A08008033B3FBF2F39BB20020C6E7012000232A
:101A1800C3E701F0C5FB636800EB5302B2FBF3F2C6
:101A280092B20020A2F110014FF6EF7399423BD811
:101A38002368DA60002222666266BDE8F08801F059
:101A4800C1FB636800EB5302B2FBF3F292B20020D1
:101A5800E8E763685A0802F5740202F51052B2FB0F
:101A6800F3F292B20020DDE700F0D6FF636800EBE6
:101A78005302B2FBF3F292B20020D3E763685A082C
:101A880002F50042B2FBF3F292B20020CAE701204D
:101A98000022C7E70120CDE70120CBE70120C9E7F5
:101AA8000120C7E70120C5E70120C3E7436A13F017
:101AB800010F06D00268536823F40033816A0B4390
:101AC8005360436A13F0020F06D00268536823F488
:101AD8008033C16A0B435360436A13F0040F06D086
:101AE8000268536823F48023016B0B435360436AF5
:101AF80013F0080F06D00268536823F40043416BC3
:101B08000B435360436A13F0100F06D002689368C2
:101B180023F48053816B0B439360436A13F0200FC7
:101B280006D00268936823F40053C16B0B4393609B
:101B3800436A13F0400F0AD00268536823F48013F5
:101B4800016C0B435360036CB3F5801F0BD0436AE1
:101B580013F0800F06D00268536823F40023816CC9
:101B68000B43536070470268536823F4C003416C09
:101B78000B435360EBE72DE9F04105460F46164647
:101B88009846069C2B68DB6937EA03030CBF0123E0
:101B98000023B3421DD1B4F1FF3FF3D02CB100F0C4
:101BA800DDFEA0EB0800A042ECD92A68136823F4F4
:101BB800D07313602A68936823F00103936020238D
:101BC80085F8713085F87230002385F8703003206D
:101BD80000E00020BDE8F08130B583B00446002362
:101BE800436700F0BBFE054623681B6813F0080F27
:101BF8000ED123681B6813F0040F17D1202384F833
:101C0800713084F87230002084F8700003B030BD61
:101C18006FF07E430093034600224FF400112046E4
:101C2800FFF7A9FF0028E4D00320EFE76FF07E4319
:101C380000932B4600224FF480012046FFF79BFFBC
:101C48000028DBD00320E1E778B310B5044690F80C
:101C580071300BB3242384F871302268136823F0A1
:101C6800010313602046FFF70FFD012813D0636AB4
:101C7800BBB92268536823F4904353602268936881
:101C880023F02A0393602268136843F0010313606A
:101C98002046FFF7A1FF10BD80F87030FFF7CEF89F
:101CA800D8E72046FFF702FFE3E70120704700006E
:101CB800F8B50668346A04F00F07C4F34343C4F365
:101CC8000A14022B2ED16CB307EB8702D30003440E
:101CD800596C39B305462246304600F0C9FCBA00B3
:101CE8003A44D3002B445A6C22445A64DA6C224496
:101CF800DA6406EB4713D3F810150B4A0A408AB189
:101D0800D3F8002522F0804242F00042C3F80025B3
:101D1800BB00D919CA002A4492F8503083F0010355
:101D280082F85030F8BD00BF0000F81F00283DD0F1
:101D3800F0B58BB0064690F8B93293B3032386F812
:101D4800B932306800F050FC344654F810CB6D4678
:101D58000FCC0FC50FCC0FC594E8030085E803002E
:101D6800371D97E80E00604600F00CFC0121306832
:101D780000F040FC344654F810CB6D460FCC0FC52C
:101D88000FCC0FC594E8030085E8030097E80E0020
:101D9800604600F0CDFC012386F8B93200200BB074
:101DA800F0BD80F8B832FFF77FF8C7E70120704729
:101DB8007047704770477047704730B583B0054625
:101DC8000468D4F840340193D4F840340093009B5D
:101DD80023F02E030093019B13F0020F07D0019B01
:101DE80013F0010F28D1009B43F002030093019BDD
:101DF80013F0080F13D0009B43F008030093019BD6
:101E080013F0040F34D0AB69022B1CD0EB68032B02
:101E180029D02846FFF7CFFF2846FFF7CAFF019BC6
:101E280013F0200F03D0009B43F020030093009B86
:101E3800C4F8403403B030BDA36923F00053A36154
:101E4800FFF7B7FFCFE7019B03F4C023B3F5802F5B
:101E580004D00121286800F027FCDAE7022128686D
:101E680000F022FCD5E74EF66022C4F80424D0E73F
:101E78002846FFF7A1FFD4F8403423F02E03C4F816
:101E880040342A68936943F000539361C7E7704769
:101E9800F8B506460D46076807EB411707F5A06435
:101EA800A36813F0040F3ED00423A360E36843F053
:101EB8000203E360A36813F4007F6AD1A36813F0F8
:101EC800010F00F0878033694BB1AA002A44D30080
:101ED80033449A6C2169C1F31201521ADA64AA00D8
:101EE8002A44D3003344012283F85D2000219965F8
:101EF800A26093F83F30002B57D0022B55D0032B0C
:101F08005DD1D7F8003543F00053C7F8003505EB2D
:101F18008502D3003344012283F85C2029463046E9
:101F2800FFF7B5FF4BE0A36813F0200F02D0202382
:101F3800A360BFE7A36813F0080F17D1A36813F4D1
:101F4800806FB7D0E36843F00203E360006800F0F5
:101F580064FC1023A36005EB8502D30033440822F8
:101F680083F85D204FF48063A360A3E7E36843F040
:101F78000203E36001EB8102D3000344052283F8E6
:101F88005D201023A3600823A360006800F045FCCF
:101F980090E7E36843F00203E3602946306800F005
:101FA8003CFC4FF40073A36013E0E36843F00203C2
:101FB800E3602946306800F030FC1023A360AB00D2
:101FC8005919CA00324492F8503083F0010382F85C
:101FD8005030F8BDA36813F0020F62D0E36823F015
:101FE8000203E36005EB8502D300334493F85D30C8
:101FF800012B17D0052B29D0062B2FD0082B2DD03D
:10200800032B16D105EB8502D3003344022283F853
:102018005C20D7F8003523F0804343F00043C7F82D
:10202800003506E005EB8502D3003344012283F82E
:102038005C200223A36005EB8502D300334493F8A8
:102048005C2029463046FFF722FFC2E705EB8502F0
:10205800D3003344052283F85C20EAE7AA002A4427
:10206800D30033449A6D01329A65032A11D9AA0024
:102078002A44D300334400229A65042283F85C2062
:10208800D7F8003523F0804343F00043C7F8003504
:10209800CFE705EB8502D3003344022283F85C20A6
:1020A800EEE7A36813F0800F19D1A36813F0100F9F
:1020B8008FD005EB8502D300334493F83F30032BD0
:1020C80025D00BB1022B07D105EB8502D300334491
:1020D80000229A6533694BB31023A36079E7E3685C
:1020E80043F00203E360AB005919CA003244916D12
:1020F800013191652B44DA003244062382F85D30C1
:102108002946306800F089FB8023A36061E705EB6E
:102118008502D300334400229A65E36843F0020342
:10212800E3602946306800F078FBD5E705EB8502C7
:10213800D3003344032283F85D20E36843F00203AD
:10214800E3602946306800F068FBC5E7F8B5036826
:1021580003EB411303F5A064A26812F0040F24D125
:102168000E460546A26812F0200F25D02023A36052
:1021780001EB8102D3001A46034493F83D30012B4A
:1021880019D18B000244002182F83D103344DA0053
:102198000244022382F85C30E36843F00203E36000
:1021A8003146006800F039FB05E00423A360E368CA
:1021B80043F00203E360F8BDA26812F0400F34D187
:1021C800A26812F4007F4AD1A26812F0010F51D11F
:1021D800A26812F0080F62D1A26812F0100F6FD037
:1021E8008A000A44D300034400229A65032283F834
:1021F8005D2093F83D306BB901EB8102D3000344B5
:1022080093F83C3033B901EB8102D3000344012237
:1022180083F83D20E36843F00203E3603146286811
:1022280000F0FBFA1023A360C5E78B005918CA0019
:102238000244042182F85D10012182F83D103344E4
:10224800DA00024400239365E36843F00203E36085
:102258003146006800F0E1FA4023A360ABE7E36889
:1022680043F00203E360006800F0D7FA4FF400730C
:10227800A360A0E78F007A18D300034400229A6570
:10228800E36843F00203E360006800F0C6FA012344
:10229800A360B919C800284480F85D308BE708238B
:1022A800A360E36843F00203E360006800F0B5FA56
:1022B80006EB8601C8002844052380F85D307AE7DC
:1022C800A26812F0800F39D1A26812F4806F46D14B
:1022D800A26812F0020F3FF46EAFE26822F0020229
:1022E800E26001EB8101CA001146024492F85D20C8
:1022F800012A48D0032A65D0042A6BD0052A71D058
:10230800062A01D0082A47D1B1003144CA002A441C
:10231800916D0131916503296AD9282202FB065281
:1023280000219165042182F85C10D3F8002522F081
:10233800804242F00042C3F800252DE0E36843F0F4
:102348000203E360006800F068FA06EB8601CB0040
:102358002B44062283F85D208023A3602BE7E368E3
:1023680043F00203E360006800F057FA1023A3600B
:102378004FF48063A36006EB8601CB002B44082250
:1023880083F85D2017E70B460344012283F85C209D
:1023980093F83F30022B0CD00223A36006EB860291
:1023A800D3002B4493F85C2031462846FFF76FFD95
:1023B80001E70B46034493F8512082F0010283F8A9
:1023C8005120E9E706EB8602D3000344022283F892
:1023D8005C20E1E706EB8602D3000344022283F87F
:1023E8005C20D9E7282303FB060383F85C20D3E7A6
:1023F800282202FB0652022182F85C1095E7F8B504
:1024080004460568284600F04BF9012800D0F8BDBD
:10241800206800F041F90028F9D0206800F03CF964
:1024280010F4001F03D023684FF400125A6120688B
:1024380000F032F910F4801F03D023684FF48012A3
:102448005A61206800F028F910F0806F03D02368E3
:102458004FF080625A61206800F01EF910F0020FF8
:1024680002D0236802225A61206800F015F910F0A2
:10247800005F25D1206800F00FF910F0807F31D17E
:10248800206800F009F910F0080F2FD1206800F03B
:1024980003F910F0007F30D1206800F0FDF810F04B
:1024A800100FB4D02268936923F01003936120467B
:1024B800FFF7FEFB2268936943F010039361A6E7D8
:1024C800D5F8403423F02E03C5F840342046FFF7F2
:1024D80071FC0121206800F0E7F823684FF00052F2
:1024E8005A61C7E72046FFF768FCC9E72046FFF7AF
:1024F8005FFC236808225A61C8E7206800F088F961
:102508000746002604E0F1B22046FFF71FFE013619
:10251800A368B34212D906F00F0327FA03F313F0A6
:10252800010FF4D005EB4613D3F8003513F4004F30
:10253800E9D0F1B22046FFF7ABFCE8E723684FF09B
:1025480000725A61A8E70000002301330C4A934245
:1025580011D80269002AF8DA036943F0010303611C
:1025680000230133064A934207D8026912F0010F8B
:10257800F7D100207047032070470320704700BF41
:10258800400D030084B010B5044603A880E80E008F
:10259800089B012B1DD1A36B23F48033A363E3684D
:1025A80023F4840323F04003E360E36823F4401337
:1025B800E3600F9B012B07D02046FFF7C5FF0020E3
:1025C800BDE8104004B07047E36843F48013E3604B
:1025D800F2E7E36843F04003E3602046FFF7B4FF07
:1025E8004FF48033A363EAE7836823F00103836031
:1025F8000020704708B5C36823F0C043C3600129B1
:1026080009D069B9C36843F08043C360322000F041
:10261800ABF9002008BDC36843F00053C360F5E779
:102628000120F7E7890141F020010161002301330E
:10263800054A934205D8026912F0200FF7D100200D
:1026480070470320704700BF400D0300102303614B
:1026580000230133054A934205D8026912F0100F8E
:10266800F7D1002070470320704700BF400D0300DA
:1026780003329208002393420CD210B400F5805420
:10268800246841F8044B01339342F7D308465DF8B8
:10269800044B70470846704742698069104070478C
:1026A800406900F00100704710B400F58064D0F86C
:1026B800003423F00303C0F80034D0F8003401F0EC
:1026C80003021343C0F80034012905D0022907D0BA
:1026D80000205DF8044B70474BF680336360F7E7E2
:1026E80041F270736360F3E782B000230193D0F87E
:1026F80040340193019B23F02E030193019B13F4B3
:10270800805F01D101290CD0019B13F4805F05D0B3
:1027180021B9019B23F48053C0F84034002002B053
:102728007047019B43F48053C0F84034ECE7000045
:1027380084B038B5044605A880E80E002546002375
:10274800C4F8003EA36B23F40013A363A36B23F424
:102758000033A363079B032B0ED0D4F8003423F077
:102768000403C4F8003410212046FFF75BFF20461D
:10277800FFF76CFF002213E0B4F1A04FEDD0D4F8BE
:10278800003443F00403C4F80034ECE705EB4213CB
:102798004FF0FF31C3F808150021C3F80C150132BA
:1027A800069B9342F2D801212046FFF79DFFC820DF
:1027B80000F0DAF80023A3614FF0FF336361B4F14E
:1027C800A04F15D04FF40073636203F18073A362C6
:1027D8000C4BC4F80031A36943F01003A361A2694C
:1027E800094B1343A3610020BDE8384004B070478B
:1027F8008023636203F5C003A362044BC4F800316D
:10280800E9E700BF0003E000080020A3E000400063
:1028180000F58060406980B2704710B400EB411148
:1028280001F5A064D1F80035C3F381433BB3022B13
:1028380025D0D1F8003543F08043C1F80035D0F8F1
:10284800103413F47F0F49D1D1F8003523F0004339
:10285800C1F80035D1F8003543F00043C1F8003520
:10286800D1F8003523F40043C1F8003500230133C3
:10287800B3F57A7F27D82268002AF8DB23E0D1F85D
:10288800003543F08043C1F80035C36A13F47F0F65
:102898001DD1D1F8003523F00043C1F80035D1F837
:1028A800003543F00043C1F80035D1F8003523F472
:1028B8000043C1F8003500230133B3F57A7F02D80D
:1028C8002268002AF8DB00205DF8044B7047D1F835
:1028D800003543F00043C1F80035F4E7D1F800357E
:1028E80043F00043C1F80035EDE7000010B5044699
:1028F800094B1868094BA3FB0030800901F0CCFD97
:1029080008B1012010BD002221464FF0FF3001F030
:1029180083FD0020F6E700BF00000020D34D6210C1
:1029280010B5094A136843F480731360032001F05B
:1029380061FD0020FFF7DAFF10B10124204610BD29
:102948000446FEF725F9F9E700200240024A136819
:1029580001331360704700BFEC050020014B186875
:10296800704700BFEC05002038B50446FFF7F6FFB6
:102978000546B4F1FF3F00D00134FFF7EFFF401BDD
:10298800A042FAD338BD000030B583B00546204BCD
:102998009B6D13F0805F0BD001F0D4FCB0F5007F85
:1029A80017D0802D1FD82DD0702D2DD000211BE0E1
:1029B800174CA36D43F08053A365A36D03F08053B8
:1029C8000193019B01F0BEFCA36D23F08053A36526
:1029D800E4E7802D03D9A02D03D9022104E00021CA
:1029E80002E0012100E003210A4A136823F00703EB
:1029F8000B431360136803F007038B4206D00120D2
:102A080003B030BD0221EFE70121EDE70020F7E731
:102A18000010024000200240314A9368D26802F058
:102A2800030213F00C030AD00C2B06D0042B1FD082
:102A3800082B20D00020014610E0012AF6D1284AB0
:102A4800126812F0080F0CD1254AD2F89420C2F36C
:102A58000322244951F8221043B100200C2B0DD039
:102A680070471F4A1268C2F30312F2E70846F5E7F7
:102A78001D480021F2E71D480021EFE7184BDA68EE
:102A880002F00302DB68C3F302130133022A0AD0FF
:102A9800032A1AD0B1FBF3F3114AD068C0F3062019
:102AA80000FB03F008E01048B0FBF3F30C4AD068D1
:102AB800C0F3062000FB03F0094BDB68C3F3416356
:102AC80001335B00B0FBF3F0CAE70848B0FBF3F34F
:102AD800034AD068C0F3062000FB03F0ECE700BF10
:102AE80000100240984500080024F40000127A0003
:102AF800002800F09082F0B583B00446AC4B9D6886
:102B080005F00C05DE6806F00306036813F0100FE5
:102B18005DD0E5B10C2D18D0A369002B00F0B7806B
:102B2800A34A136843F001031360FFF717FF074632
:102B38009F4B1B6813F0020F40F09680FFF70EFFC3
:102B4800C01B0228F4D9032371E2012EE4D1984B6B
:102B58001B6813F0020F03D0A369002B00F05E82FC
:102B6800206A934B1B6813F0080F5DD0904B1B68CD
:102B780003F0F00398425ED9FFF706FF002840F003
:102B88004F828B4B1A6842F008021A601A6822F0CA
:102B9800F002216A0A431A605A6822F47F42E16906
:102BA80042EA01225A60FFF737FF814B9B68C3F363
:102BB8000313804AD35C03F01F03D8407E4B186090
:102BC8000020FFF793FE0346002840F03082236878
:102BD80013F0010F7AD0082D6FD00C2D6BD06368DD
:102BE800B3F5803F00F09180B3F5A02F00F09380FB
:102BF8006F4B1A6822F480321A601A6822F4802215
:102C08001A606368002B00F09380FFF7A7FE074661
:102C1800674B1B6813F4003F58D1FFF79FFEC01B9A
:102C28006428F5D9032302E2614BD3F894301B09D9
:102C380003F0F0039EE75E4B1A6842F008021A6040
:102C48001A6822F0F002216A0A431A605A6822F4CC
:102C58007F42E16942EA01225A60206AFFF794FE46
:102C68000028A0D00123E2E1514B1A6842F0080283
:102C78001A601A6822F0F002216A0A431A605A6838
:102C880022F47F42E16942EA01225A609FE7484AFA
:102C9800136823F001031360FFF760FE0746444BF7
:102CA8001B6813F0020F92D0FFF758FEC01B0228D2
:102CB800F5D90323BBE1032E91D13D4B1B6813F4D7
:102CC800003F03D06368002B00F0AC81236813F049
:102CD800020F4FD0042D3CD00C2D38D0E368002BC8
:102CE80075D0334A136843F480731360FFF736FED8
:102CF80006462F4B1B6813F4806F5FD1FFF72EFE3B
:102D0800801B0228F5D9032391E1294A136843F46B
:102D18008033136075E703F18043A3F53C331A68E9
:102D280042F480221A601A6842F480321A6068E716
:102D3800FFF714FE07461E4B1B6813F4003FC5D06F
:102D4800FFF70CFEC01B6428F5D903236FE1022EA0
:102D5800C4D1174B1B6813F4806F03D0E368002BB2
:102D680000F06281124A536823F0F853216943EA5C
:102D780001635360236813F0080F53D06369002B75
:102D880039D00B4AD2F8943043F00103C2F894309A
:102D9800FFF7E4FD0646064BD3F8943013F0020F14
:102DA80040D1FFF7DBFD801B0228F4D903233EE165
:102DB8000010024080450008000000209E4A536829
:102DC80023F0F853216943EA01635360D2E79A4A32
:102DD800136823F480731360FFF7C0FD0646964B13
:102DE8001B6813F4806FC5D0FFF7B8FD801B02285D
:102DF800F5D903231BE1904AD2F8943023F001035C
:102E0800C2F89430FFF7AAFD06468B4BD3F89430EE
:102E180013F0020F06D0FFF7A1FD801B0228F4D99A
:102E2800032304E1236813F0040F7AD0824B9B6DCF
:102E380013F0805F0BD1804B9A6D42F080529A65F7
:102E48009B6D03F080530193019B012600E000264F
:102E58007A4B1B6813F4807F26D0A368012B37D0E8
:102E6800052B3DD0744BD3F8902022F00102C3F813
:102E78009020D3F8902022F00402C3F89020A36891
:102E8800002B3BD0FFF76AFD07466B4BD3F8903019
:102E980013F0020F44D1FFF761FDC01B41F28833E4
:102EA8009842F2D90323C2E0644A136843F480735A
:102EB8001360FFF753FD0746604B1B6813F4807FD0
:102EC800CBD1FFF74BFDC01B0228F5D90323AEE099
:102ED800594AD2F8903043F00103C2F89030CEE757
:102EE800554BD3F8902042F00402C3F89020D3F851
:102EF800902042F00102C3F89020C0E7FFF72EFDB2
:102F080007464D4BD3F8903013F0020F08D0FFF767
:102F180025FDC01B41F288339842F2D9032386E08D
:102F280066BBA36A002B00F081800C2D00F0828024
:102F3800022B29D0404B1A6822F080721A601B6855
:102F480013F0205F04D13C4AD36823F00303D36015
:102F5800394AD36823F0887323F48033D360FFF7AA
:102F6800FDFC0446344B1B6813F0007F51D0FFF77B
:102F7800F5FC001B0228F5D9032358E02E4A936D6F
:102F880023F080539365CCE72B4A136823F08073B2
:102F98001360FFF7E3FC0546274B1B6813F0007F1F
:102FA80006D0FFF7DBFC401B0228F5D903233EE0DF
:102FB800236B5A1E636B1B0243EA0213A26B1209AE
:102FC80043EA4243E26A1343E26B5208013A43EA96
:102FD8004253226C5208013A43EA4263164AD360CC
:102FE800136843F080731360D36843F08073D36031
:102FF800FFF7B4FC0446104B1B6813F0007F06D1A2
:10300800FFF7ACFC001B0228F5D903230FE00023CF
:103018000DE000230BE0012318467047012306E06A
:10302800012304E0012302E0012300E00023184605
:1030380003B0F0BD0123FAE7001002400070004021
:10304800002800F09A8070B504464E4B1B6803F0C8
:1030580007038B420CD24B4A136823F007030B4338
:103068001360136803F007038B4201D0012070BD81
:103078000D46236813F0010F39D06368032B09D07C
:10308800022B26D063BB404A126812F0020F06D109
:103098000120ECE73C4A126812F0007F6FD03A49F1
:1030A8008A6822F0030213438B60FFF757FC064639
:1030B800354B9B6803F00C036268B3EB820F16D0A4
:1030C800FFF74CFC801B41F288339842F0D903206B
:1030D800CDE72D4A126812F4003FE0D10120C6E77F
:1030E800294A126812F4806FD9D10120BFE72368FA
:1030F80013F0020F06D0244A936823F0F003A16866
:103108000B4393601F4B1B6803F00703AB420CD9BA
:103118001C4A136823F007032B431360136803F05A
:103128000703AB4201D00120A1E7236813F0040F85
:1031380006D0154A936823F4E063E1680B43936073
:10314800236813F0080F07D00F4A936823F46053DD
:10315800216943EAC1039360FFF75EFC0A4B9B6851
:10316800C3F30313094AD35C03F01F03D840084B89
:1031780018600020FFF7BAFB79E7012070470120AB
:1031880075E700BF0020024000100240804500089B
:1031980000000020014B1868704700BF00000020A5
:1031A80008B5FFF7F7FF054B9B68C3F30223044AF2
:1031B800D35C03F01F03D84008BD00BF00100240D5
:1031C8009045000808B5FFF7E5FF054B9B68C3F37A
:1031D800C223044AD35C03F01F03D84008BD00BFD4
:1031E8000010024090450008B0F5006F24D0B0F5FB
:1031F800805F2BD00020B0F5000F31D0B0F1007FF8
:103208002ED0002849D1384B1B6913F4803F6AD06F
:10321800354BD868C0F302100130B1FBF0F11869E2
:10322800C0F306201B6913F4003F34D1072300FBC9
:1032380001F0B0FBF3F070472B4BD3F8880000F493
:103248004000B0F5400FD6D128487047264BD3F838
:10325800880000F04070B0F1407FCCD1234870471F
:10326800214BDB6813F4803F3AD01F4BD868C0F37A
:1032780002100130B1FBF0F1D868C0F30620DB681A
:1032880013F4003F05D1072300FB01F0B0FBF3F076
:1032980070471123F8E71123C9E7B0F5800F04D070
:1032A800B0F1807F01D0002070470F4B5B6913F4A9
:1032B800803F17D00C4BD868C0F302100130B1FB27
:1032C800F0F15869C0F306205B6913F4003F05D09C
:1032D800112300FB01F0B0FBF3F070470723F8E778
:1032E80000207047002070470010024068FF1F0050
:1032F800F8B55A4BDB6813F0030F18D0574BDB684F
:1033080003F003030268934202D001252846F8BD62
:10331800002A00F0A080514BDB68C3F3021301338D
:103328004268934201D00125F0E700251AE00368BE
:10333800022B59D0032B5ED0012B01D001250FE0C1
:10334800464A126812F0020F61D0444DEA6822F032
:1033580073024468013C43EA04131343EB600025FD
:10336800002DD3D10F4604463C4A136823F08063EE
:103378001360FFF7F3FA0646384B1B6813F0006F2B
:1033880005D0FFF7EBFA801B0228F5D90325002D9D
:10339800BCD1002F3DD131490B6923F41F3323F4ED
:1033A8004073A068E2681209520442EA00221343FB
:1033B8000B612A4A136843F080631360FFF7CEFA63
:1033C8000646264B1B6813F0006F05D1FFF7C6FAB7
:1033D800801B0228F5D90325002D97D11F4A1369B0
:1033E800A1690B43136191E71C4A126812F4806FBC
:1033F800ABD10125B4E7194A126812F4003FA4D1F1
:10340800164A126812F4802F9FD10125A8E70125DA
:10341800A6E7012F0FD01148026922F0C06222F4FA
:10342800FE42A16863695B08013B5B0643EA01232E
:1034380013430361BDE70948026922F4C00222F47C
:10344800FE42A16823695B08013B5B0543EA01234F
:1034580013430361ADE7012558E700BF00100240A0
:10346800F8B5514BDB6813F0030F18D04E4BDB68EF
:1034780003F003030268934202D001252846F8BDF1
:10348800002A00F08E80484BDB68C3F30213013337
:103498004268934201D00125F0E700251AE003684D
:1034A800022B59D0032B5ED0012B01D001250FE050
:1034B8003D4A126812F0020F61D03B4DEA6822F0D3
:1034C80073024468013C43EA04131343EB6000258C
:1034D800002DD3D10F460446334A136823F0805396
:1034E8001360FFF73BFA06462F4B1B6813F0005F8B
:1034F80005D0FFF733FA801B0228F5D90325002DE4
:10350800BCD1002F3DD128494B6923F41F3323F444
:103518004073A068E2681209520442EA0022134389
:103528004B61214A136843F080531360FFF716FA82
:1035380006461D4B1B6813F0005F05D1FFF70EFA16
:10354800801B0228F5D90325002D97D1164A536907
:1035580061690B43536191E7134A126812F4806F53
:10356800ABD10125B4E7104A126812F4003FA4D188
:103578000D4A126812F4802F9FD10125A8E7012572
:10358800A6E70948426922F0C06222F4FE42A16817
:1035980023695B08013B5B0643EA0123134343614C
:1035A800BFE701256AE700BF001002402DE9F0419E
:1035B80082B00446036813F4006F2FD0436EB3F54E
:1035C800800F25D008D9B3F5000F10D0B3F5400F00
:1035D80040F09980002610E0002B40F094800021F4
:1035E8000430FFF785FE06463EB1374618E05E4ACE
:1035F800D36843F48033D36000265B4AD2F888301E
:1036080023F44003616E0B43C2F88830002707E0BB
:1036180000212030FFF724FF0646E5E700273E4655
:10362800236813F4805F15D0A36EB3F1807F7AD03E
:103638006CD9B3F1007F70D0B3F1407F7AD1002EFE
:103648007BD1494AD2F8883023F04073A16E0B43EE
:10365800C2F88830236813F4003F00F08E80424B94
:103668009B6D13F0805F6AD13F4B9A6D42F0805298
:103678009A659B6D03F080530193019B4FF00108FD
:103688003A4A136843F480731360FFF767F90546F5
:10369800364B1B6813F4807F05D1FFF75FF9401B99
:1036A8000228F5D90326002E62D12F4BD3F890308B
:1036B80013F4407316D0D4F884209A4212D02A4AC0
:1036C800D2F8903023F44073D2F8901041F480314E
:1036D800C2F89010D2F8901021F48031C2F89010FE
:1036E800C2F8903013F0010F2CD1002E40F0438126
:1036F8001D4AD2F8903023F44073D4F884100B4359
:10370800C2F8903035E001273E4689E793B9002199
:10371800201DFFF7EDFD064691E7134AD36843F4F1
:103728008033D3608BE7002104F12000FFF798FE77
:10373800064684E701273E468CE737468AE74FF07E
:1037480000089DE7FFF70AF90546074BD3F89030C4
:1037580013F0020FC9D1FFF701F9401B41F288337A
:103768009842F2D90326C0E70010024000700040DA
:103778003746B8F1000F40F00081236813F0010FBD
:1037880008D09D4AD2F8883023F00303A16B0B437D
:10379800C2F88830236813F0020F08D0964AD2F88E
:1037A800883023F00C03E16B0B43C2F888302368A0
:1037B80013F0040F08D0904AD2F8883023F0300371
:1037C800216C0B43C2F88830236813F0080F08D027
:1037D800894AD2F8883023F0C003616C0B43C2F8E1
:1037E8008830236813F0100F08D0834AD2F8883045
:1037F80023F44073A16C0B43C2F88830236813F09C
:10380800200F08D07C4AD2F8883023F44063E16C5A
:103818000B43C2F88830236813F4007F08D0764A37
:10382800D2F8883023F44023E16D0B43C2F8883086
:10383800236813F4806F08D06F4AD2F8883023F4D5
:103848004013216E0B43C2F88830236813F0400FF1
:1038580008D0694AD2F8883023F44053216D0B43CD
:10386800C2F88830236813F0800F08D0624AD2F873
:10387800883023F44043616D0B43C2F888302368D5
:1038880013F4807F08D05C4AD2F8883023F44033A0
:10389800A16D0B43C2F88830236813F4005F0FD082
:1038A800554AD2F8883023F04063E16E0B43C2F8E2
:1038B8008830E36EB3F1006F65D0B3F1806F67D0E5
:1038C800236813F4002F0FD04B4AD2F8883023F026
:1038D8004063216F0B43C2F88830236FB3F1006F48
:1038E8005ED0B3F1806F60D0236813F4802F0FD0BF
:1038F800414AD2F8883023F04063616F0B43C2F825
:103908008830636FB3F1006F57D0B3F1806F59D02F
:10391800236813F4804F0FD0374AD2F8883023F049
:103928004053A16F0B43C2F88830A36FB3F1805F97
:1039380050D0B3F1005F55D0236813F4004F08D07E
:103948002D4AD2F8883023F08043E16F0B43C2F848
:103958008830236813F4803F09D0274AD2F888308A
:1039680023F00043D4F880100B43C2F8883038465F
:1039780002B0BDE8F0813746FBE61F4A936D23F09D
:1039880080539365F9E6D36843F48013D36097E7CF
:103998000121201DFFF7ACFC002891D007468FE7D6
:1039A800D36843F48013D3609EE70121201DFFF7FD
:1039B8009FFC002898D0074696E7D36843F4801305
:1039C800D360A5E70121201DFFF792FC00289FD0B6
:1039D80007469DE70221201DFFF78AFC0028ABD08F
:1039E8000746A9E7022104F12000FFF739FD002866
:1039F800A2D00746A0E700BF0010024008B5B0F506
:103A0800003F38D0BB4BDB6803F00303022B74D0B4
:103A1800032B79D0012B58D00021B0F5007F00F09E
:103A2800E38200F2CA80102800F0098200F28A803E
:103A3800022800F09E8174D9042800F0C881082863
:103A480040F01881AB4BD3F8883003F0C003402B0B
:103A580000F0EA8140F2E281802B00F0E881C02B7F
:103A680040F03483A34BD3F8903013F0020F40F0AA
:103A7800318300200EE09F4BD3F8903003F440735D
:103A8800B3F5007F10D0B3F5407F16D0B3F5807F33
:103A980001D0002008BD974BD3F8903013F0020FE7
:103AA80040F0ED820020F5E7924BD3F8943013F004
:103AB800020F40F0E7820020ECE78E4B1B6813F4FE
:103AC800003F40F0E2820020E4E78A4B1B6813F0D5
:103AD800020F20D0874B1B6813F0080F07D0854BC7
:103AE8001B68C3F30313844A52F8231095E7814BEC
:103AF800D3F89430C3F30323F5E77E4B1B6813F424
:103B0800806F0AD07D4988E77A4B1B6813F4003F21
:103B180005D07B4981E700217FE700217DE700216F
:103B28007BE7012840F0A680724BD3F8883003F079
:103B38000303032B00F2B582DFE813F00401070149
:103B48000A011201402800F0078218D9802800F0E5
:103B58001F82B0F5807F40F08D80664BD3F88830A7
:103B680003F44033B3F5803F00F03182B3F5003FF2
:103B780000F03082002B00F0278200208AE72028FE
:103B880078D15C4BD3F8883003F44063B3F5806F89
:103B980000F0858140F27D81B3F5006F00F08281ED
:103BA800B3F5406F40F0A082524BD3F8903013F039
:103BB800020F40F09D8200206CE7B0F5804F00F0C6
:103BC80079813DD8B0F5006F56D007D9B0F5805F40
:103BD80023D14FF48050FFF707FB5BE7B0F5806F08
:103BE80048D1444BD3F8883003F44013B3F5801F11
:103BF80000F02C8240F22582B3F5001F00F02E82DF
:103C0800B3F5401F40F08B823A4BD3F8903013F055
:103C1800020F40F08B8200203CE7B0F5005F29D10D
:103C2800344BD3F8883003F04063B3F1006F41D0D0
:103C3800B3F1406F25D0B3F1806F63D0002029E73E
:103C4800B0F5803F00F07D810ED8B0F5004F11D15E
:103C5800284BD3F8883013F0804300F00682002BFD
:103C680040F00682002015E7B0F5802FD8D0B0F5D7
:103C7800002FD5D000200DE74FF40060FFF7B4FA0D
:103C880008E71C4B1B6813F0020F00F00082194B69
:103C98001B6813F0080F07D0164B1B68C3F30313F8
:103CA800154A52F82300F5E6124BD3F89430C3F3C3
:103CB8000323F5E70F4B1B6813F0007F00F0E98141
:103CC8000C4BDB6813F4801F00F0E581094BD868C2
:103CD800C0F302100130B1FBF0F1D868C0F3062040
:103CE80000FB01F0DB68C3F3415301335B00B0FB19
:103CF800F3F0CFE600100240984500080024F400D5
:103D080000127A00B74B1B6813F0006F00F0C581F2
:103D1800B44B1B6913F4801F00F0C181B14BD86804
:103D2800C0F302100130B1FBF0F11869C0F30620AE
:103D380000FB01F01B69C3F3415301335B00B0FB87
:103D4800F3F0A7E6FFF73EFAA4E6FEF765FEA1E664
:103D5800A44B1B6813F4806F40F0A581002099E6FE
:103D6800A04BD3F8903013F0020F40F09E81002052
:103D780090E69C4BD3F8883003F00C030C2B00F230
:103D88009781DFE813F00D0095019501950110006A
:103D980095019501950113009501950195011B0069
:103DA800FFF7FEF976E6FEF737FE73E68D4B1B68E4
:103DB80013F4806F40F07E8100206BE6894BD3F8C6
:103DC800903013F0020F40F07781002062E6854BB7
:103DD800D3F8883003F03003102B14D00DD9202BE2
:103DE80014D0302B40F06B817E4BD3F8903013F019
:103DF800020F40F0688100204CE6002B40F05F8104
:103E0800FFF7CEF946E6FEF707FE43E6754B1B685B
:103E180013F4806F40F0558100203BE6002B40F002
:103E28005581FFF7BDF935E6FEF7F6FD32E66D4B35
:103E38001B6813F4806F40F04B8100202AE6694B21
:103E4800D3F8883003F44073B3F5807F16D00FD9C8
:103E5800B3F5007F15D0B3F5407F40F03E81614B4C
:103E6800D3F8903013F0020F40F03B81002011E6A8
:103E7800002B40F03281FFF793F90BE6FEF7CCFDFB
:103E880008E6584B1B6813F4806F40F02881002027
:103E980000E6002B40F02881FFF782F9FAE5FEF7EB
:103EA800BBFDF7E54F4B1B6813F4806F40F01E8194
:103EB8000020EFE54B4BD3F8883003F04053B3F1C3
:103EC800005F24D0B3F1405F04D0B3F1805F04D029
:103ED8000020DFE5FEF7A0FDDCE5424B1B6913F08F
:103EE800807F00F008813F4BD868C0F30210013092
:103EF800B1FBF0F11869C0F3062000FB01F01B6963
:103F0800C3F3416301335B00B0FBF3F0C2E5354B0B
:103F18005B6913F0807F00F0F080324BD868C0F303
:103F280002100130B1FBF0F15869C0F3062000FB24
:103F380001F05B69C3F3416301335B00B0FBF3F04D
:103F4800A8E5284BD3F88830002B02DBFFF73AF9B5
:103F5800A0E5FEF761FD9DE5224BD3F8883003F418
:103F68004053B3F5805F08D0B3F5005F08D00BB1BC
:103F780000208FE5FFF714F98CE5FEF74DFD89E584
:103F8800184B1B6813F4806F40F0B980002081E55E
:103F9800144BD3F8883003F44043B3F5804F08D06E
:103FA800B3F5004F08D00BB1002073E5FFF7F8F820
:103FB80070E5FEF731FD6DE50A4B1B6813F4806F61
:103FC80040F09F80002065E5FFF7EAF862E5FEF71C
:103FD80023FD5FE5034B1B6813F4806F40F093806B
:103FE800002057E500100240534BD3F8883003F403
:103FF8004023B3F5802F15D00FD9B3F5002F19D072
:10400800B3F5402F40F081804B4BD3F8903013F03C
:10401800020F40F0818000203CE5002B75D1FFF7AE
:10402800BFF837E5444BD3F8943013F0020F6ED144
:1040380000202FE5404B1B6813F4806F6AD10020E5
:1040480028E5002B6BD1FFF7ABF823E53A4BD3F803
:10405800943013F0020F64D100201BE5364B1B6827
:1040680013F4806F60D1002014E5FFF799F811E58B
:10407800314B1B6813F4806F5BD100200AE54FF4C5
:10408800004007E54FF4FA4004E52C4802E500201B
:1040980000E50020FEE40020FCE40020FAE4002013
:1040A800F8E40020F6E42648F4E44FF40040F1E494
:1040B8000020EFE42248EDE44FF40040EAE4002059
:1040C800E8E41F48E6E44FF40040E3E40020E1E4BC
:1040D8001B48DFE44FF40040DCE40020DAE4184831
:1040E800D8E44FF40040D5E40020D3E41448D1E4E8
:1040F8004FF40040CEE40020CCE40020CAE410488D
:10410800C8E40F48C6E40E48C4E40020C2E44FF4F3
:10411800FA40BFE40A48BDE44FF40040BAE4002086
:10412800B8E44FF4FA40B5E40548B3E44FF400406E
:10413800B0E40348AEE400BF0010024090D0030092
:104148000024F400024A136843F004031360704724
:1041580000100240F0B482B0002341E0D0F82CC037
:104168002CEA040CC6F3C0049C4044EA0C04C46264
:1041780086E0062400E00024B4403C430235664E45
:1041880046F82540654C2568D44304EA05064F687F
:1041980017F4803F01D042EA0506604D2E606D6835
:1041A80004EA05064F6817F4003F01D042EA050605
:1041B8005A4D6E60AD6804EA05064F6817F4801F13
:1041C80001D042EA0506554DAE60ED682C404E68B8
:1041D80016F4001F01D042EA0504504AD4600133A6
:1041E8000A6832FA03F400F0938001249C402240CC
:1041F800F5D04D68022D01D0122D10D1DE080836F9
:1042080050F826C003F00705AF000F25BD402CEA83
:10421800050C0D69BD4045EA0C0540F826500668B6
:104228005F000325BD40ED4305EA060C4E6806F025
:104238000306BE4046EA0C0606604E6806F1FF3CDF
:10424800BCF1010F03D9112E01D0122E11D18668AD
:1042580005EA060CCE68BE4046EA0C06866046684B
:1042680026EA040C4E68C6F300169E4046EA0C0681
:1042780046604E6806F0030CBCF1030F3FF46EAFC6
:10428800C46825408C68BC402C43C4604C6814F05A
:10429800805FA4D0224C256E45F001052566246E6A
:1042A80004F001040194019C9D08AE1C1A4C54F8BA
:1042B800267003F00304A6000F24B44027EA04077D
:1042C800B0F1904F3FF457AF164CA04216D004F50A
:1042D8008064A04214D004F58064A04212D004F592
:1042E8008064A04210D004F58064A0420ED004F58A
:1042F8008064A0423FF43DAF07243DE701243BE73B
:10430800022439E7032437E7042435E7052433E793
:1043180002B0F0BC704700BF00000140000401403B
:1043280000100240000400480AB9816270478161A8
:1043380070470000024A136843F4807313607047A3
:1043480000700040024B186800F4C060704700BF5E
:1043580000700040B0F5007F0FD01F4B1B6803F4BE
:10436800C063B3F5806F34D01B4A136823F4C0636D
:1043780043F48063136000207047174B1B6803F4F5
:10438800C063B3F5007F22D0134A136823F4C063D7
:1043980043F400731360114B1A68322303FB02F3D2
:1043A8000F4AA2FB03239B0C013300E0013B0A4A9E
:1043B800526912F4806F01D0002BF7D1064B5B696C
:1043C80013F4806F01D1002070470320704700204C
:1043D80070470020704700BF0070004000000020B8
:1043E80083DE1B43024A536843F48063536070477B
:1043F80000700040074AD36823F4E0631B041B0CD9
:10440800000200F4E060184340F0BF6040F4003060
:10441800D060704700ED00E030B4174BDB68C3F3A1
:104428000223C3F10704042C28BF04241D1D062DF4
:1044380018D9033B4FF0FF3505FA04F421EA0401CB
:10444800994005FA03F322EA0303194300280BDB1A
:104458000901C9B200F1604000F5614080F800131D
:1044680030BC70470023E5E700F00F000901C9B22E
:10447800024B1954F4E700BF00ED00E014ED00E032
:1044880000F01F02400901239340024A42F82030FD
:10449800704700BF00E100E00138B0F1807F0AD228
:1044A800064B5860064AF02182F8231000209860D5
:1044B80007221A6070470120704700BF10E000E033
:1044C80000ED00E00F49D1F8883043F47003C1F8DB
:1044D80088300D4B1A6842F001021A60002098607B
:1044E8001A6822F0A85222F410221A604FF480525F
:1044F800DA601A6822F480221A6098614FF000632B
:104508008B60704700ED00E000100240DFF834D007
:10451800002103E00C4B5B58435004310B480C4B13
:1045280042189A42F6D30B4A02E0002342F8043BB1
:10453800094B9A42F9D3FFF7C5FFFBF765FEFCF775
:10454800A7FAFEE700800120E045000800000020EF
:104558000800002008000020F0050020FEE7000009
:10456800F8B500BFF8BC08BC9E467047F8B500BF58
:08457800F8BC08BC9E46704728
:104580000000000000000000010203040607080903
:104590000000000001020304A0860100400D03009A
:1045A000801A060000350C0040420F0080841E0077
:1045B00000093D0000127A000024F40000366E016C
:0845C0000048E801006CDC0278
:0845C80054BDFF7F010000005B
:0845D000F101000800000000E9
:0845D800C90100080000000009
:0845E00000093D00000000008D
:040000050800451595
:00000001FF
